{
  "_format": "hh-sol-artifact-1",
  "contractName": "Hospital",
  "sourceName": "contracts/hospital.sol",
  "abi": [
    {
      "inputs": [],
      "stateMutability": "nonpayable",
      "type": "constructor"
    },
    {
      "inputs": [
        {
          "internalType": "address",
          "name": "_address",
          "type": "address"
        }
      ],
      "name": "Authorize",
      "outputs": [],
      "stateMutability": "nonpayable",
      "type": "function"
    },
    {
      "inputs": [
        {
          "internalType": "uint256",
          "name": "_patientId",
          "type": "uint256"
        },
        {
          "internalType": "string",
          "name": "_patientName",
          "type": "string"
        },
        {
          "internalType": "string",
          "name": "_diagnosis",
          "type": "string"
        },
        {
          "internalType": "string",
          "name": "_status",
          "type": "string"
        }
      ],
      "name": "addRecord",
      "outputs": [],
      "stateMutability": "nonpayable",
      "type": "function"
    },
    {
      "inputs": [],
      "name": "getOwner",
      "outputs": [
        {
          "internalType": "address",
          "name": "",
          "type": "address"
        }
      ],
      "stateMutability": "view",
      "type": "function"
    },
    {
      "inputs": [
        {
          "internalType": "uint256",
          "name": "_patientId",
          "type": "uint256"
        }
      ],
      "name": "getRecord",
      "outputs": [
        {
          "components": [
            {
              "internalType": "uint256",
              "name": "recordId",
              "type": "uint256"
            },
            {
              "internalType": "string",
              "name": "patientName",
              "type": "string"
            },
            {
              "internalType": "string",
              "name": "diagnosis",
              "type": "string"
            },
            {
              "internalType": "string",
              "name": "treatmentStatus",
              "type": "string"
            },
            {
              "internalType": "uint256",
              "name": "timeStamp",
              "type": "uint256"
            }
          ],
          "internalType": "struct Hospital.Record[]",
          "name": "",
          "type": "tuple[]"
        }
      ],
      "stateMutability": "view",
      "type": "function"
    },
    {
      "inputs": [
        {
          "internalType": "address",
          "name": "",
          "type": "address"
        }
      ],
      "name": "isAuthorizedPerson",
      "outputs": [
        {
          "internalType": "bool",
          "name": "",
          "type": "bool"
        }
      ],
      "stateMutability": "view",
      "type": "function"
    }
  ],
  "bytecode": "0x608060405234801561001057600080fd5b50336000806101000a81548173ffffffffffffffffffffffffffffffffffffffff021916908373ffffffffffffffffffffffffffffffffffffffff160217905550610f48806100606000396000f3fe608060405234801561001057600080fd5b50600436106100575760003560e01c806303e9e6091461005c5780631a08a3481461008c5780636d81a01b146100a8578063893d20e8146100c4578063e5829cb6146100e2575b600080fd5b61007660048036038101906100719190610645565b610112565b6040516100839190610857565b60405180910390f35b6100a660048036038101906100a191906109ae565b61034e565b005b6100c260048036038101906100bd9190610ac7565b6104c9565b005b6100cc6105b2565b6040516100d99190610b03565b60405180910390f35b6100fc60048036038101906100f79190610ac7565b6105db565b6040516101099190610b39565b60405180910390f35b606060016000838152602001908152602001600020805480602002602001604051908101604052809291908181526020016000905b8282101561034357838290600052602060002090600502016040518060a00160405290816000820154815260200160018201805461018490610b83565b80601f01602080910402602001604051908101604052809291908181526020018280546101b090610b83565b80156101fd5780601f106101d2576101008083540402835291602001916101fd565b820191906000526020600020905b8154815290600101906020018083116101e057829003601f168201915b5050505050815260200160028201805461021690610b83565b80601f016020809104026020016040519081016040528092919081815260200182805461024290610b83565b801561028f5780601f106102645761010080835404028352916020019161028f565b820191906000526020600020905b81548152906001019060200180831161027257829003601f168201915b505050505081526020016003820180546102a890610b83565b80601f01602080910402602001604051908101604052809291908181526020018280546102d490610b83565b80156103215780601f106102f657610100808354040283529160200191610321565b820191906000526020600020905b81548152906001019060200180831161030457829003601f168201915b5050505050815260200160048201548152505081526020019060010190610147565b505050509050919050565b60011515600260003373ffffffffffffffffffffffffffffffffffffffff1673ffffffffffffffffffffffffffffffffffffffff16815260200190815260200160002060009054906101000a900460ff161515146103e1576040517f08c379a00000000000000000000000000000000000000000000000000000000081526004016103d890610c11565b60405180910390fd5b60006001806000878152602001908152602001600020805490506104059190610c60565b9050600160008681526020019081526020016000206040518060a001604052808381526020018681526020018581526020018481526020014281525090806001815401808255809150506001900390600052602060002090600502016000909190919091506000820151816000015560208201518160010190816104899190610e40565b50604082015181600201908161049f9190610e40565b5060608201518160030190816104b59190610e40565b506080820151816004015550505050505050565b60008054906101000a900473ffffffffffffffffffffffffffffffffffffffff1673ffffffffffffffffffffffffffffffffffffffff163373ffffffffffffffffffffffffffffffffffffffff1614610557576040517f08c379a000000000000000000000000000000000000000000000000000000000815260040161054e90610c11565b60405180910390fd5b6001600260008373ffffffffffffffffffffffffffffffffffffffff1673ffffffffffffffffffffffffffffffffffffffff16815260200190815260200160002060006101000a81548160ff02191690831515021790555050565b60008060009054906101000a900473ffffffffffffffffffffffffffffffffffffffff16905090565b60026020528060005260406000206000915054906101000a900460ff1681565b6000604051905090565b600080fd5b600080fd5b6000819050919050565b6106228161060f565b811461062d57600080fd5b50565b60008135905061063f81610619565b92915050565b60006020828403121561065b5761065a610605565b5b600061066984828501610630565b91505092915050565b600081519050919050565b600082825260208201905092915050565b6000819050602082019050919050565b6106a78161060f565b82525050565b600081519050919050565b600082825260208201905092915050565b60005b838110156106e75780820151818401526020810190506106cc565b60008484015250505050565b6000601f19601f8301169050919050565b600061070f826106ad565b61071981856106b8565b93506107298185602086016106c9565b610732816106f3565b840191505092915050565b600060a083016000830151610755600086018261069e565b506020830151848203602086015261076d8282610704565b915050604083015184820360408601526107878282610704565b915050606083015184820360608601526107a18282610704565b91505060808301516107b6608086018261069e565b508091505092915050565b60006107cd838361073d565b905092915050565b6000602082019050919050565b60006107ed82610672565b6107f7818561067d565b9350836020820285016108098561068e565b8060005b85811015610845578484038952815161082685826107c1565b9450610831836107d5565b925060208a0199505060018101905061080d565b50829750879550505050505092915050565b6000602082019050818103600083015261087181846107e2565b905092915050565b600080fd5b600080fd5b7f4e487b7100000000000000000000000000000000000000000000000000000000600052604160045260246000fd5b6108bb826106f3565b810181811067ffffffffffffffff821117156108da576108d9610883565b5b80604052505050565b60006108ed6105fb565b90506108f982826108b2565b919050565b600067ffffffffffffffff82111561091957610918610883565b5b610922826106f3565b9050602081019050919050565b82818337600083830152505050565b600061095161094c846108fe565b6108e3565b90508281526020810184848401111561096d5761096c61087e565b5b61097884828561092f565b509392505050565b600082601f83011261099557610994610879565b5b81356109a584826020860161093e565b91505092915050565b600080600080608085870312156109c8576109c7610605565b5b60006109d687828801610630565b945050602085013567ffffffffffffffff8111156109f7576109f661060a565b5b610a0387828801610980565b935050604085013567ffffffffffffffff811115610a2457610a2361060a565b5b610a3087828801610980565b925050606085013567ffffffffffffffff811115610a5157610a5061060a565b5b610a5d87828801610980565b91505092959194509250565b600073ffffffffffffffffffffffffffffffffffffffff82169050919050565b6000610a9482610a69565b9050919050565b610aa481610a89565b8114610aaf57600080fd5b50565b600081359050610ac181610a9b565b92915050565b600060208284031215610add57610adc610605565b5b6000610aeb84828501610ab2565b91505092915050565b610afd81610a89565b82525050565b6000602082019050610b186000830184610af4565b92915050565b60008115159050919050565b610b3381610b1e565b82525050565b6000602082019050610b4e6000830184610b2a565b92915050565b7f4e487b7100000000000000000000000000000000000000000000000000000000600052602260045260246000fd5b60006002820490506001821680610b9b57607f821691505b602082108103610bae57610bad610b54565b5b50919050565b600082825260208201905092915050565b7f4f6e6c79206f776e65722077696c6c2061636365737320697400000000000000600082015250565b6000610bfb601983610bb4565b9150610c0682610bc5565b602082019050919050565b60006020820190508181036000830152610c2a81610bee565b9050919050565b7f4e487b7100000000000000000000000000000000000000000000000000000000600052601160045260246000fd5b6000610c6b8261060f565b9150610c768361060f565b9250828201905080821115610c8e57610c8d610c31565b5b92915050565b60008190508160005260206000209050919050565b60006020601f8301049050919050565b600082821b905092915050565b600060088302610cf67fffffffffffffffffffffffffffffffffffffffffffffffffffffffffffffffff82610cb9565b610d008683610cb9565b95508019841693508086168417925050509392505050565b6000819050919050565b6000610d3d610d38610d338461060f565b610d18565b61060f565b9050919050565b6000819050919050565b610d5783610d22565b610d6b610d6382610d44565b848454610cc6565b825550505050565b600090565b610d80610d73565b610d8b818484610d4e565b505050565b5b81811015610daf57610da4600082610d78565b600181019050610d91565b5050565b601f821115610df457610dc581610c94565b610dce84610ca9565b81016020851015610ddd578190505b610df1610de985610ca9565b830182610d90565b50505b505050565b600082821c905092915050565b6000610e1760001984600802610df9565b1980831691505092915050565b6000610e308383610e06565b9150826002028217905092915050565b610e49826106ad565b67ffffffffffffffff811115610e6257610e61610883565b5b610e6c8254610b83565b610e77828285610db3565b600060209050601f831160018114610eaa5760008415610e98578287015190505b610ea28582610e24565b865550610f0a565b601f198416610eb886610c94565b60005b82811015610ee057848901518255600182019150602085019450602081019050610ebb565b86831015610efd5784890151610ef9601f891682610e06565b8355505b6001600288020188555050505b50505050505056fea26469706673582212208e2f0b6a059658724153f4cbcf6c4490baee835f4cb7d7bc364e3812517f583664736f6c63430008180033",
  "linkReferences": {},
  "deployedLinkReferences": {}
}